:020000040800F2
:10000000C85B0020C5010008EF430008493C000818
:10001000ED430008810B0008B15600080000000005
:10002000000000000000000000000000D94F0008A0
:10003000BD0C000800000000C14400083150000859
:10004000DF010008DF010008DF010008DF01000810
:10005000DF010008DF010008DF010008DF01000800
:10006000DF010008DF010008DF010008DF010008F0
:10007000DF010008DF010008DF010008DF010008E0
:10008000E90B0008DF010008A9090008DF010008EA
:10009000DF010008DF010008DF010008DF010008C0
:1000A000DF010008DF010008DF010008DF010008B0
:1000B000DF010008DF010008DF010008DF010008A0
:1000C000DF010008DF010008DF010008DF01000890
:1000D000DF01000899560008DF010008DF01000871
:1000E000DF010008DF010008DF010008DF01000870
:1000F000DF010008DF010008DF010008DF01000860
:10010000DF010008DF010008DF010008DF0100084F
:10011000DF010008DF010008DF010008DF0100083F
:10012000F50B0008010C00080D0C0008DF010008A9
:10013000DF010008DF010008DF010008DF0100081F
:10014000DF010008DF010008DF010008DF0100080F
:10015000DF010008DF010008DF010008A5560008E4
:10016000DF010008DF010008DF010008DF010008EF
:10017000DF010008DF010008DF01000800000000C7
:10018000DF010008DF010008DF010008DF010008CF
:10019000DF010008DF010008DF010008DF010008BF
:1001A000DF010008DF010008DF010008DFF810D0E0
:1001B00000F0D0FA00480047EDBA0008AFF3008025
:1001C000C85B00200648804706480047FEE7FEE778
:1001D000FEE7FEE7FEE7FEE7FEE7FEE7FEE7FEE7F7
:1001E000D1500008AD0100082DE9F05F0546002060
:1001F00092469B4688460646814640241BE0284698
:1002000041464746224600F0B4F853465A46C01AC3
:10021000914110D311461846224600F09BF82D1A42
:1002200067EB01084F4622460120002100F092F8BA
:1002300017EB00094E41201EA4F10104DFDC484603
:1002400031462A464346BDE8F09F40EA01039B073A
:1002500003D009E008C9121F08C0042AFAD203E03B
:1002600011F8013B00F8013B521EF9D27047D2B29F
:1002700001E000F8012B491EFBD270470022F6E78F
:1002800010B513460A4604461946FFF7F0FF20460C
:1002900010BDCAB2401E10F8011F8A4202D00029C8
:1002A000F9D100207047421C10F8011B0029FBD136
:1002B000801A704710B5002200E0521C835C8C5CF1
:1002C000A34201D1002BF8D1D8B2E1B2401A10BD3F
:1002D00030B504460020034600E05B1C934203D285
:1002E000E05CCD5C401BF8D030BD30B503461D78D6
:1002F0003DB10A4612F8014B1CB1AC42FAD15B1C6D
:10030000F5E7181A30BD30B50546002008E00A466A
:1003100002E0A34207D0521C1378002BF9D1401CF5
:100320002C5C002CF3D130BD30B50B4601460020CB
:100330002022012409E021FA02F59D4205D303FAA7
:1003400002F5491B04FA02F52844151EA2F1010228
:10035000F1DC30BD202A04DB203A00FA02F1002053
:1003600070479140C2F1200320FA03F319439040F3
:100370007047202A04DB203A21FA02F0002170475E
:1003800021FA02F3D040C2F12002914008431946FD
:100390007047F0B400F0004221F0004120F000402E
:1003A000CE0DC30DC1F3160141F40001C0F31600D8
:1003B0004C42154640F40000761E09E010EB440064
:1003C00002D582F0004240428842F7D840005B1ECE
:1003D000B342F9DA18B1F0BC002100F0E8B92846C0
:1003E000F0BC70472DE9FE4F804681EA0300C00F44
:1003F0000C46009021F0004123F00045B8EB0200CC
:10040000A94105D24046214690461C460B4602466D
:1004100023F00040104347D0270DC7F30A00C3F371
:100420000A510290401A019040286BDAC3F313007E
:1004300040F4801B0098924620B10023D2EB030ABF
:1004400063EB0B0B01985946C0F140025046FFF791
:1004500081FF06460D4650465946019A00F08CF938
:1004600010EB08006141002487EA115284EAE77327
:100470001A4340D0009A62B3019A012A4FEA075208
:1004800015DC001B61EB02014FF0004202EA07524B
:10049000CDE90042001C41F5801132462B4600F0A8
:1004A000C3F903B0BDE8F08F40462146F9E7001BD1
:1004B00061EB0201001C41F5801300185B4120181C
:1004C000A2F5001747EB030140EAD570B6196D415C
:1004D00011E06D084FEA360645EAC0754FEA07524B
:1004E000001B61EB0201001C41F5801149084FEA35
:1004F00030000019514132462B4603B0BDE8F04FA1
:1005000000F083B90098012240000023D0EB0202E2
:1005100063EBE073009821464FEAE074B8EB00000B
:1005200061EB0401E9E783F000435BE781F0004100
:1005300058E72DE9FE4F81EA030404F0004421F05E
:10054000004100944FF0000B23F0004350EA0104F7
:100550005ED052EA03045BD0C3F30A54C1F30A55D8
:100560002C44A4F2F3340194A0FB0254C1F3130110
:1005700041F48011C3F3130343F4801301FB0244DD
:1005800000FB034E840A970A44EA815447EA8357E2
:10059000A4FB076802958D0A05FB07854FEA932C9B
:1005A00004FB0C542705029D4FEA065847EA16370C
:1005B000B5EB08056EEB070C870E920E47EA811724
:1005C00042EA8312A7FB0201B6EB0B0164EB0004C5
:1005D0002B0D43EA0C335E1844EB1C50DA465146AF
:1005E000E7FB0201C5F313044FEA0B3343EA14534C
:1005F0004FEA0432019C43EA0603A4F10C0402947E
:10060000009CCDE900B400F00FF903B0BDE8F08F15
:1006100000200146F9E72DE9F04D81EA030404F0DA
:10062000004B21F0004514464FF0000A23F0004132
:1006300050EA050220D054EA01021DD0C5F30A5742
:100640000246C5F31303C1F31300C1F30A5640F485
:10065000801543F48013A7EB0608101BD64608F25A
:10066000FD3873EB050002D308F1010801E0921890
:100670005B41B8F1000F03DA00200146BDE8F08DC0
:1006800000204FF48011064684460EE0171B73EBE2
:10069000050705D3121B63EB050306434CEA010C67
:1006A00049084FEA300092185B4150EA0107EDD14A
:1006B00052EA030012D082EA040083EA05010843EB
:1006C00005D0101BAB4106D20122002306E0002218
:1006D0004FF0004302E06FF0010253101AEB0600E6
:1006E0004CEB085110EB0A0041EB0B01BDE8F04D5B
:1006F00000F08BB8C1F30A52C1F3130140F2FF338B
:1007000041F480119A4202DA00200146704740F21B
:1007100033439A42A2F2334202DC5242FFF729BE2F
:10072000FFF718BE30B5041E71F1000404DB4FF072
:100730000044404264EB0101141E73F1000405DB28
:100740001C464FF00043524263EB0403994208BF3A
:10075000904230BD064C074D06E0E06840F00103D2
:1007600094E8070098471034AC42F6D3FFF722FD17
:10077000F090030810910308202A06DBCB17203ADB
:1007800041FA02F043EAE07306E041FA02F3D04096
:10079000C2F1200291400843194670470029A8BFC2
:1007A0007047401C490008BF20F00100704710B49A
:1007B000B0FA80FC00FA0CF050EA010404BF10BC4F
:1007C000704749B1CCF1200421FA04F411FA0CF17C
:1007D00018BF012121430843A3EB0C01CB1D4FEAB5
:1007E00000614FEA102042BF002010BC704700EBB0
:1007F000C35010440029A4BF10BC7047401C4900DE
:1008000008BF20F0010010BC704710B5141E73F132
:10081000000408DA401C41F1000192185B411A43C0
:1008200001D120F0010010BD2DE9F04D92469B460C
:1008300011B1B1FA81F202E0B0FA80F220329046B2
:10084000FFF788FD04460F4640EA0A0041EA0B0123
:1008500053465A46084313D0114653EA010019D0B3
:10086000C8F140025046FFF784FD05460E4650464B
:1008700059464246FFF76EFD084305D0012004E0CB
:1008800020463946BDE8F08D0020054346EAE07673
:100890002C4337430A986305E40AA0EB08000022C2
:1008A000FD0A44EA47540A3002D500200146E9E730
:1008B000010510196941DDE9084500196941BDE8E4
:1008C000F04DA2E770B58C1810F8015B15F0070326
:1008D00001D110F8013B2A1106D110F8012B03E0D9
:1008E00010F8016B01F8016B5B1EF9D12B0705D4E1
:1008F0000023521E0DD401F8013BFAE710F8013B2A
:10090000CB1A921C03E013F8015B01F8015B521E45
:10091000F9D5A142D8D3002070BD10B50146806B37
:10092000026C12F0500F05D0026CD20626D500F0F2
:100930009EFB10BD016C41F40071016401688A687E
:1009400012F0405F17D1027EAAB9CA6A12F4700F82
:1009500002D08A6852050ED44A6822F020024A600A
:10096000016C21F480710164016CC90403D4016C31
:1009700041F00101016400F06BFB10BD806BC26CA3
:10098000BDE810400846104710B5806B4021016457
:10099000416C41F00401416400F069FB10BD10B5E9
:1009A000806B00F063FB10BD014800F061BB0000EC
:1009B00010020020464910B54A6822F440324A60CD
:1009C0004A6843681A434A6001684A6822F48072A0
:1009D0004A6001684A68036942EA03224A60016882
:1009E0004A6822F040724A6001684A6883681A4384
:1009F0004A6001688A6822F400628A6001688A6835
:100A0000C3681A438A60816A6FF07062D1420168DC
:100A10008A6822F070628A6001688A680CD0836AF2
:100A20001A438A6001688A6822F040528A6001682D
:100A30008A68C36A1A4301E022F040528A60016862
:100A40008A6822F002028A6001688A68037E42EAAC
:100A500043028A6090F82010002901684A680FD08C
:100A600042F400624A6001684A6822F460424A60C7
:100A700001684A68174C436A04EB43331A4301E0A8
:100A800022F400624A600168CA6A22F47002CA62F3
:100A90000168CA6A838B104C04EB03531A43CA6281
:100AA00001688A6822F400728A6001688A6890F896
:100AB000303042EA43228A6001688A6822F4806208
:100AC0008A6001688A68406942EA8020886010BDB7
:100AD0000023014000E0FFFF0000F0FF0146014855
:100AE00002F00EB88003002010B5044802F01AF896
:100AF000042801D0012010BD002010BD800300207B
:100B000010B500F015F8012801D0012010BD0748EC
:100B100002F01EF8040006D14FF40061034801F012
:100B200097FE00B10124204610BD00008003002084
:100B300008B501208DF800009DF8000008BD0000F8
:100B400038B50024009313460A460146034802F0D4
:100B5000A1F800B10124204638BD00008003002028
:100B600038B50024009313460A460146034802F0B4
:100B700081F900B10124204638BD00008003002027
:100B8000FEE710B5846B204600F0A4FC0120207124
:100B900010BD10B5846B204600F072FC012020715E
:100BA00010BD10B5846B206940F004002061204620
:100BB00000F092FC0120207110BD10B5846B2069FB
:100BC00040F004002061204600F05CFC0120207110
:100BD00010BD10B5806B00F07EFC10BD10B5806BB1
:100BE00000F04FFC10BD0000014800F0A7BD000060
:100BF000CC020020014800F0A1BD000058020020F6
:100C0000014800F09BBD000094050020014800F061
:100C100095BD00003405002001681823CAB2103ABF
:100C2000B2FBF3F2054B6FF30901032A9B5CC3652A
:100C300000D9091D816508467047000054DC000892
:100C400010B5014600208B698A6A4FF0C07453B119
:100C5000B3F5005F15D072B1012A0CD0022A0AD078
:100C6000032A09D104E01AB1012A06D0022A03D1CD
:100C7000C96AC90100D5012010BDC96AA142FAD0D4
:100C800010BD002AF7D0012AF2D0022AF3D0032A9D
:100C9000F3D010BD30B50468256825F480252560A3
:100CA000046863608368402B036803D09960006820
:100CB000C26030BD9A600068C16030BD704772B6D6
:100CC000FEE70022AFF3008030B50E4B0546012051
:100CD0005C7A002C14D1587A1C54587A03EB8000AB
:100CE00045605D7A03F108002A54587A421C5A7212
:100CF000303008703A2048702F208870CC70002067
:100D000030BD0000B82B00202DE9F0470D462DED39
:100D1000048BB0EE409A00EE105ADFED1A0A9146AD
:100D2000B8EE400A06460024DFED178A80EE808A7E
:100D30004FF4805740F6FF781EE000BF00EE904A67
:100D4000B0EE490AF8EE600A00EE880A04F084FD6D
:100D500000EE909AB8EE601AF0EE680A40EE010AD2
:100D6000BCEEE00A10EE100A80B226F81400B84279
:100D700001D326F81480641CAC42DFD3BDEC048B95
:100D8000BDE8F087D00FC94000F0FF44F0B5DFEDBB
:100D9000220AB5EEC00AB7EE001AF1EE10FA02D23E
:100DA000B0EE600A06E010EE103AB3F17E5F01DDAE
:100DB000B0EE410A00EE901A00234FF48057F8EE8F
:100DC000600ABFEE002A7E1E20EE800ABCEEC00A3A
:100DD00010EE104A9FED110A1AE0A34202D2F0EE83
:100DE000410A01E0F0EE420A01EE902AF8EE612A93
:100DF000F0EE401A40EEA21AFCEEE10A10EE905A14
:100E0000ADB220F81350BD4201D320F813605B1C33
:100E10008B42E2D3F0BD00000000000000F0FF4470
:100E20002DE9F04117462DED028B0D469FED2C8AE2
:100E300006464C08F0EE480A04F0B5FCC0EE080A7D
:100E400000EE105A0020B8EE400A20EE800AF0EEC4
:100E5000000ABCEEC00A10EE102A3BE08118B1FB7C
:100E6000F5F305FB1311A1420ED200EE101AF8EEB5
:100E7000401A00EE104AB8EE400A81EE801ABFEE2A
:100E8000000A01EE200A0EE0091B00EE101AF8EE2F
:100E9000401A00EE104AB8EE400A81EE801AB7EE12
:100EA000000A01EE600A01EE107AF8EE411A9FED99
:100EB0000D1A00EE211ABCEEC10A10EE101A89B20A
:100EC00026F81010B1F5805F03D340F6FF7126F8C5
:100ED0001010401CA842C1D3BDEC028BBDE8F081CC
:100EE000D00FC94000F0FF447047000078B50024DF
:100EF000009490F83C20012A19D0012280F83C206F
:100F00000A6807230568092A13D9EE680A3A02EB32
:100F1000420293409E43EE600B788A680A3B03EBE3
:100F200043039A400368DD682A43DA6010E0022038
:100F300078BD2E6902EB420293409E432E610B78EE
:100F40008A6803EB43039A4003681D692A431A61C8
:100F50004A681F23072A13D205686E6B521E02EBE4
:100F6000820293409E436E630A8893B20A79521EAE
:100F700002EB820293400268556B2B43536327E0D8
:100F800005680D2A12D22E6BD21F02EB820293400B
:100F90009E432E630B790A88DB1F92B203EB830317
:100FA0009A4003681D6B2A431A6311E0EE6A0D3AFA
:100FB00002EB820293409E43EE620B790A880D3B5E
:100FC00092B203EB83039A400368DD6A2A43DA6234
:100FD0001B4B0568194A9D420AD10D68122D07D195
:100FE000556825F400055560556845F48005556041
:100FF00005689D421DD1134D0B68AB4201D0112BEA
:1010000017D1536823F480035360536843F40003FB
:1010100053600968A9420CD10B490C4A0968B1FB1D
:10102000F2F101EB8101490000E0491E0091002925
:10103000FBD180F83C40002078BD00000023014037
:1010400000200140120000102800002040420F0044
:10105000044910B5884204D100F0DCF902490120AE
:10106000087010BD10020020590100207047704721
:1010700070B5044600680668456816F0020F05F072
:1010800020012AD049B3216CC90603D4216C41F454
:1010900000712164816811F0405F17D1217EA9B9E8
:1010A000C16A11F4700F02D0816849050ED44168FD
:1010B00021F020014160206C20F480702064206CBD
:1010C000C00403D4206C40F0010020642046FFF7E8
:1010D000BFFF21686FF01200086016F0040F05F0E2
:1010E000800132D089B3206CC00603D4206C40F458
:1010F000005020642068816811F4401F1ED1816B6C
:1011000011F4401F02D08168490517D44168490590
:1011100014D4816811F0405F10D1217E71B941680B
:1011200021F080014160206C20F480502064206C0C
:10113000C00503D4206C40F0010020642046FFF776
:10114000D3FE21686FF00C00086016F0010F05F067
:1011500040010FD071B120680068C0070AD0206C30
:1011600040F480302064204600F043F821686FF09E
:101170000100086016F0200F05F080610ED00029F4
:101180000CD0606C40F00200606420686FF02005B5
:1011900005602046FFF76BFF2068056070BD70B5E5
:1011A00004004FF0000503D0206C002610B107E0CA
:1011B000012070BD204600F01DF8666484F83C6094
:1011C000206CC00610D4206C20F4885040F002003F
:1011D00020642046FFF7EEFB6664206C20F00200DE
:1011E00040F00100206400E0012584F83C602846BE
:1011F00070BD704770B586B0064614216846FFF78B
:101200003DF828493068884249D1274800250168BF
:1012100041F4807101600068234900F48070143942
:101220000590086840F004000860086800F00400B9
:101230000590086840F0010008600868032400F089
:101240000100059001208DE831006946174800F043
:10125000F9FB20208DE831006946154800F0F2FBCB
:10126000154C1448C4E900050015A560C4E90350F5
:10127000800060618000C4E9060525622046656241
:1012800000F02CFB08B1FFF71AFDB46300221146F1
:101290001220A66300F0D0FF122000F0BFFF06B0BE
:1012A00070BD0000002001404438024000080240A8
:1012B000000002401064024058020020F8B50E46BB
:1012C00000210446009190F83C0013460A4601288C
:1012D00007D0012084F83C0020688568ED0702D023
:1012E00011E00220F8BD856845F0010585604048A1
:1012F000404D0068B0FBF5F000EB400000E0401E00
:1013000000900028FBD120688568ED0503D585682D
:1013100025F48075856020688568ED075DD0226CB6
:1013200040F20165AA4342F480722264406840059D
:1013300005D5206C20F4005040F480502064206CCF
:10134000C00404D5606C20F00600606400E06164B5
:1013500084F83C10A16B2948274DC863A16B28482D
:101360000864A16B2748C86421686FF022000860F8
:101370002068416841F0806141602068816841F4E3
:1013800080718160216832464C31A06B00F010FB07
:10139000024668681C49C006206806D0884224D1ED
:1013A000816811F0405F13D01FE08842F8D0174BDE
:1013B000984203D1D1F80433DB06F1D0144B9842A4
:1013C00013D1D1F8041301F01F011029E8D30CE068
:1013D000816841F08041816007E0206C40F010009E
:1013E0002064606C40F0010060641046F8BD0000AD
:1013F0002800002040420F00002301401B09000884
:101400009F090008890900080020014000210140CF
:101410000022014010B50446002094F83C10012938
:101420000CD0012184F83C1021688A6822F0010266
:101430008A6021688A68D20702D01DE0022010BDB0
:101440008A6822F480728A60A16B91F83520022AA2
:1014500007D1084600F016F918B1216C41F040019F
:10146000216421684A6822F080624A60216C21F47C
:10147000885141F001012164002184F83C1010BD25
:1014800070477047704770B500B3F9B14379012BCD
:101490001ED0012646710223037105682C6802F0F4
:1014A000100340F6FE729A409443D1E900210A43AA
:1014B0009A4022432A6001680A68C0249C40A243E3
:1014C0000A60067100214171084670BD012070BD9F
:1014D000022070BD70477047704770B5040003D09C
:1014E0002079002510B105E0012070BD657120460E
:1014F00000F008F8022020712561012020710020F1
:1015000070BD000070B586B0054614216846FEF730
:10151000B5FE1F492868884237D11E480026016859
:1015200041F000510160006800F00050059019483A
:101530001038016841F0010101600068694600F05F
:1015400001000590102000900320CDE9010612480B
:1015500000F078FA124C114820604FF06060606033
:101560004020C4E902060001206140006061800063
:10157000A0614011C4E907062046666200F0AEF99A
:1015800008B1FFF79CFBAC60A56306B070BD00001E
:101590000074004040380240000002408860024071
:1015A000CC0200202DE9F0410400069817460D46B4
:1015B0001BD0617901291BD001266671022121719E
:1015C000C5B1E2682949D163E26829491164E2683A
:1015D0002849D16421680A6842F080520A6040B309
:1015E0002268042828D01C3227E00120BDE8F081C1
:1015F0000220FBE7A2682049D163A2681F49116459
:10160000A2681F49D16421680A6842F480520A60C6
:1016100020B12268042804D0103203E02268083286
:1016200000E00C322068016841F400510160A068BC
:1016300009E02268143200E018322068016841F0A5
:1016400000510160E068394600F0B2F90021617193
:1016500020B1216941F004012161C7E721680A68CE
:1016600005F010039E4032430A60BFE7930B000869
:10167000DD0B0008BB0B0008830B0008D30B000830
:10168000A30B00082DE9F0410446876D00F0FEFA37
:10169000064694F835000025022806D080206065B3
:1016A00084F834500120BDE8F0812068016821F001
:1016B000160101602068416921F080014161206CC0
:1016C00008B9A06C20B12068016821F00801016010
:1016D0002068016821F0010101600CE000F0D6FAF9
:1016E000801B052807D920206065032084F8350079
:1016F00084F83450D7E720680068C007EED194F82A
:101700005C103F208840B860012084F8350084F8E0
:1017100034500020C7E790F83510022903D080210B
:10172000416501207047052180F835100068016887
:1017300021F0010101600020704700002DE9F8430D
:1017400004464FF00009CDF8009063484FF416515D
:10175000A56D0068B0FBF1F72E6894F85C100820C6
:1017600000FA01F131420FD021680A6852070BD507
:101770000A6822F004020A6094F85C108840A860AD
:10178000606D40F00100606594F85C104FF0010856
:1017900008FA01F0304208D021684969090604D5E9
:1017A000A860606D40F00200606594F85C10042051
:1017B0008840304208D021680968890704D5A860AC
:1017C000606D40F00400606594F85C101020884063
:1017D000304218D021680968090714D5A86020682C
:1017E0000168490304D50068000308D5A16C07E02F
:1017F0000168C90503D4016821F008010160216C6A
:1018000009B12046884794F85C1020208840304277
:1018100031D021680968C9062DD5A86094F8350033
:1018200005282068016806D0490347D500680003F1
:101830001DD4616C1CE021F0160101602068416933
:1018400021F080014161206C08B9A06C20B12068B2
:10185000016821F00801016094F85C103F20884085
:10186000A86084F8358084F83490216D1FE0E16B26
:1018700009B120468847606D00282BD0606DC007F5
:1018800014D0052084F835002068016821F001019A
:1018900001600098401C0090B84203D8206800689E
:1018A000C007F6D184F8358084F83490E16C0029C3
:1018B00010D001B02046BDE8F04308470168C905D3
:1018C000D5D4016821F01001016084F8358084F8D6
:1018D0003490CCE7BDE8F883280000202DE9F041E2
:1018E000044600F0D3F906465CB1022084F83500C6
:1018F000002584F834502068016821F0010101605E
:101900000DE00120BDE8F08100F0C0F9801B052842
:1019100005D920206065032084F83500F2E72068AF
:101920000068C007F0D12268116820480140D4E95E
:1019300001031843D4E9033633431843636918435A
:10194000A3691843E3691843236A18430843616A8B
:10195000042903D1D4E90B1319430843106020680C
:101960004069666A20F0070130460E4301270428CB
:101970000CD1A06A0643E06A40B12046FFF760F947
:1019800020B14020606584F83570BAE72068466170
:101990002046FFF741F994F85C203F219140816097
:1019A000656584F835700020ACE700003F8010F0DA
:1019B0002DE9F0410446866D90F834000025012899
:1019C0000DD0012084F8340094F835700020012FE8
:1019D00007D084F8340002252846BDE8F0810220B3
:1019E000FBE7022784F8357060652046FFF752F95F
:1019F00094F85C103F208840B0602068016841F096
:101A000016010160206C20B12068016841F00801D6
:101A100001602068016841F001010160DCE700001D
:101A200070B5044600F032F90546601C02D0044847
:101A30000078044400F02AF9401BA042FAD370BD9C
:101A4000000000202DE9F84FDFF8F8A10022012462
:101A500003254FF00F090AF1040BAAF1040E00BF91
:101A60000B6804FA02F63340B34270D10F7907F0E5
:101A70000307012F01D0022F16D187684FEA4208D1
:101A800005FA08FC27EA0C07D1F80CC00CFA08FC90
:101A90004CEA070CC0F808C04768B7430E79C6F394
:101AA000001696403E4346600E79F643B6070AD0CC
:101AB000C7684FEA420C05FA0CF6B7438E6806FA7F
:101AC0000CF63E43C6600E7906F00306022E10D1D6
:101AD000D60800EB8608D8F8206057074FEAD76C85
:101AE00009FA0CF7BE430F6907FA0CF73743C8F839
:101AF000207006684FEA420C05FA0CF7BE430F79D6
:101B000007F0030707FA0CF7374307604E6816F42F
:101B1000403F1CD04C4E376847F4804737603668EA
:101B200022F0030706F480460096484E07EB060CA9
:101B3000DCF8086897073F0F09FA07F826EA080655
:101B4000DFF80C81404503D14FF0000841E072E01E
:101B5000DFF80081404502D14FF0010839E0DFF89D
:101B6000F880404502D14FF0020832E0DFF8EC8007
:101B7000404502D14FF003082BE0DFF8E4804045F8
:101B800002D14FF0040824E0DFF8D880404502D1AC
:101B90004FF005081DE0DFF8D080404502D14FF03E
:101BA000060816E0DFF8C480404502D14FF0070870
:101BB0000FE0DFF8BC80404502D14FF0080808E094
:101BC000DFF8B080404502D14FF0090801E04FF046
:101BD0000A0808FA07F848EA0608CCF80888DAF88C
:101BE00000605746D1F804C09E435FEACC2C00D574
:101BF0001E433E60DBF800605F46D1F804C09E43A0
:101C00005FEA8C2C00D51E433E60DEF8006077460C
:101C1000D1F804C09E435FEA8C3C00D51E433E6071
:101C2000084F083F3E68D1F804C09E435FEACC3CB1
:101C300000D51E433E60521C102AFFF411AFBDE8D0
:101C4000F88F0000083C0140443802400030014059
:101C5000000002400004024000080240000C024064
:101C6000001002400014024000180240001C024014
:101C700000200240002402400069084000D00120FA
:101C800070470AB1816170470904FBE70148806829
:101C9000704700000000002090F83D20202A01D06D
:101CA00002207047242280F83D200268136823F048
:101CB000010313600268536A23F010035362026841
:101CC000536A0B43536201680A6842F001020A60DA
:101CD000202180F83D100020704790F83D20202AF8
:101CE00001D002207047242280F83D20026813684A
:101CF00023F00103136003685A6A22F00F020A43BB
:101D000091B2596201680A6842F001020A6020211A
:101D100080F83D100020704770B5040025D094F87D
:101D20003D00002520B984F83C50204600F0E6F93B
:101D3000242084F83D002068016821F00101016041
:101D40002068016841F4004101602068016821F4C5
:101D50000041016000F074FB4D4A6168914201D876
:101D60004C4900E04C49884201D2012070BD4B49EA
:101D70002368B0FBF1F15E6826F03F060E435E601B
:101D80006368934206D94FF4967359434FF47A73BC
:101D9000B1FBF3F12368491C1E6A26F03F0631436C
:101DA00019626168914210D84900401EB0FBF1F2FF
:101DB000521CC2F30B02042A01D2042022E0B0FB21
:101DC000F1F0401CC0F30B001CE0A268F2B301EB81
:101DD000C10303EB0116431EB3FBF6F35B1C43F494
:101DE00080431B0549D092B301EBC10202EB011104
:101DF000401EB0FBF1F0401CC0F30B0040F48040EB
:101E000040F400402168CA694CF6FF739A431043BE
:101E1000C861D4E9071001432068026822F0C002BB
:101E200011430160D4E9030101432068826848F24C
:101E3000FF339A4311438160D4E9050108432168C7
:101E4000CA6822F0FF021043C86001E00EE016E00D
:101E50002068016841F0010101602564202084F8B8
:101E60003D00256384F83E50002070BD01EB410623
:101E7000431EB3FBF6F35B1CB3E70120C2E701EBA3
:101E80004101401EB0FBF1F0401CC0F30B00B7E76E
:101E9000A086010080841E0000093D0040420F0022
:101EA0002DE9F84F1F4690468A460446DDF82890F3
:101EB000FFF7ECFE054694F83D0020287FD119235A
:101EC000012240492046009501F0A4FF002876D168
:101ED00094F83C00012872D0012084F83C0020686E
:101EE0000168C90703D1016841F001010160206860
:101EF000016821F400610160212084F83D00102078
:101F000084F83E0000262664C4F824806785608D2E
:101F100020852D48E0622B464A465146204601F076
:101F2000ABFE90B9206841698069009036E02A468E
:101F30004946204602F014F850B1206C042804D120
:101F40002068016841F4007101600120BDE8F88F4C
:101F5000606A216800780861606A401C6062618D77
:101F6000491E6185218D491E89B2218522685369E8
:101F7000DB435B070BD451B100781061606A401CF1
:101F80006062608D401E6085208D401E20852A463F
:101F90004946204601F012FF0028CED1208D0028AE
:101FA000C5D154F83D0B016841F400710160202057
:101FB00004F81E09E67766770020C7E7FFE70220EE
:101FC000C4E70000020010000000FFFF2DE9FF4FF2
:101FD00083B09A46DDE9119793460446DDF84080C8
:101FE000FFF754FE054694F83D0020287FD11923C1
:101FF000012240492046009501F00CFF002876D1CF
:1020000094F83C00012872D0012084F83C0020683C
:102010000168C90703D1016841F00101016020682E
:10202000016821F400610160212084F83D00402016
:1020300084F83E0000262664C4F82480A4F82A9080
:10204000608D20852C48E062CDE9007553465A46E4
:102050002046049901F05EFE70B930E02A46394608
:10206000204601F07DFF58B1206C042804D120687F
:10207000016841F400710160012007B0BDE8F08FF4
:10208000606A216800780861606A401C6062218D86
:10209000491E89B22185628D521E6285226853696C
:1020A000DB435B070BD469B100781061606A401CA8
:1020B0006062208D401E2085608D401E6085208DD1
:1020C0000028CBD12A463946204601F077FE002869
:1020D000CAD154F83D0B016841F400710160202021
:1020E00004F81E09E67766770020C6E7FFE70220BE
:1020F000C3E70000020010000000FFFF10B586B02B
:10210000044614216846FEF7B9F81449206888424D
:1021100021D113480021026842F0020202600068E7
:1021200000F0020005904FF4407000901220CDE9BD
:102130000101032003900420049069460948FFF739
:1021400081FC07481030016841F40011016000680B
:1021500000F40010059006B010BD000000540040CF
:10216000303802400004024002488168027811447D
:1021700081607047000000200B4810B5016841F4F1
:1021800000710160016841F480610160016841F4FF
:1021900080710160032000F06FF80F2000F006F856
:1021A00000F024F8002010BD003C024070B50D4D39
:1021B00004464FF47A712878B1FBF0F00A490968B7
:1021C000B1FBF0F001F0BAF848B9102C07D20022A8
:1021D0002146501E00F030F800206C6070BD0120D8
:1021E00070BD000000000020280000200A4808B54B
:1021F000016841F480410160006800F48040009073
:102200000548001F016841F080510160006800F03E
:102210008050009008BD000044380240002809DBCF
:1022200000F01F02012191404009800000F1E020F0
:10223000C0F8001170470000F0B40E4B1B680C464C
:10224000C3F30223C3F10705042D00D90425191D8A
:10225000072901D2002300E0DB1E012606FA05F162
:10226000491E214099409E40761E16403143F0BCE5
:1022700003F089BA0CED00E0064900F00702086897
:102280004FF6FF03184040EA0220034A104308605B
:10229000704700000CED00E00000FA052DE9F8435E
:1022A0001748016841F0805101600068154F00F047
:1022B0008050012600903E64FFF7E8FC05464FF48D
:1022C0007A78114C05E000BFFFF7E0FC401B404569
:1022D0000DD86068C003F7D57E64FFF7D7FC0546CC
:1022E000464607E0FFF7D2FC401BB04202D903206C
:1022F000BDE8F88360688003F4D50020F8E70000AB
:102300004038024000000E42007000402DE9F047C6
:102310000E46050065D0DFF81481D8F80000F7B24A
:1023200000F00F00B04207D288F80070D8F8000023
:1023300000F00F00B04254D128683D4C810712D5FF
:10234000400703D5206840F4E0502060287800075B
:1023500003D5206840F4604020602068A96820F020
:10236000F000084320602878C0072DD03049686805
:102370000839012812D0022813D0032811D0096887
:10238000890700292DDA216821F00301014321602A
:10239000FFF77CFC814641F2883A0EE00968890328
:1023A000EFE709688901ECE7FFF770FCA0EB090192
:1023B000514502D90320BDE8F0872068696800F024
:1023C0000C00B0EB810FEFD1D8F80010404601F0BF
:1023D0000F01B14207D90770006800F00F00B0424A
:1023E00001D00120E7E72878400705D52068E96893
:1023F00020F4E050084320602878000706D52068C4
:10240000296920F4604040EAC100206000F038F8FB
:102410002168084AC1F30311515CC84006490860AD
:1024200006480068FFF7C2FE0020C4E7003C0240F7
:1024300008380240C4E300082800002004000020FF
:102440000448054900680968044AC1F38221515CC7
:10245000C84070472800002008380240D4E3000834
:102460000448054900680968044AC1F34231515CD7
:10247000C84070472800002008380240D4E3000814
:10248000154810B5006810F00C02144813D0144918
:10249000042A0FD0082A0ED10F4C241F226823686B
:1024A00002F03F025B0207D52068C0F38810A0FB52
:1024B000010106E0084610BD2168C1F38811A1FBA7
:1024C00000010023FDF790FE2168C1F30141491C82
:1024D0004900B0FBF1F010BD083802400024F400C0
:1024E00040787D012DE9F84F04006ED02078DFF8A8
:1024F0004C93C007A9F104054AD009F10400016812
:10250000C1F38101012908D00068C0F381000228CD
:102510000AD1D9F80000400206D52868800337D5D3
:1025200060680028E1D033E06068B0F5803F10D0EB
:10253000B0F5A02F286810D020F4803028602868DB
:1025400020F4802028606068A8B1FFF79FFB064652
:102550000DE0286840F48030F4E740F480202860E3
:10256000F7E700BFFFF792FB801B642873D8286849
:102570008003F7D50CE0FFF789FB064605E000BFB6
:10258000FFF784FB801B6428F0D828688003F7D409
:102590002078DFF8AC8280074FF0000A3ED5A748CC
:1025A000001D016811F00C0F08D00068C0F3810015
:1025B00002280BD1D9F80000400207D42868800710
:1025C00016D5E068012800D112E033E1E068B8B127
:1025D0000120C8F80000FFF759FB064605E000BFE0
:1025E000FFF754FB801B0228C0D828688007F7D566
:1025F0002868216920F0F80040EAC10028600DE059
:10260000C8F800A0FFF742FB064604E0FFF73EFBD8
:10261000801B02281FD828688007F7D4207800077D
:1026200022D5864F87486169703771B101210160F9
:10263000FFF72CFB064604E0FFF728FB801B02286F
:1026400009D838688007F7D50EE0C0F800A0FFF77A
:102650001DFB064605E082E0FFF718FB801B022801
:102660007DD838688007F7D42078400768D5DFF830
:10267000CCB100270BF13C0BDBF80000C0000BD401
:10268000DBF8001041F08051CBF80010DBF80000BF
:10269000012700F0805000906B4E3068C00510D4C8
:1026A000306840F480703060FFF7F0FA009005E089
:1026B000FFF7ECFA0099401A022850D83068C0059C
:1026C000F6D55E4EA0686C3601280FD0052830681C
:1026D00010D020F001003060306820F0040030603D
:1026E000A068B8B1FFF7D2FA00900FE0306840F070
:1026F0000100F4E740F004003060F7E7FFF7C6FAA6
:102700000099411A41F28830814266D830688007CA
:10271000F4D50EE0FFF7BAFA009007E0FFF7B6FA3B
:102720000099411A41F28830814256D830688007BA
:10273000F4D42FB1DBF8001021F08051CBF8001059
:10274000A069C8B33D49091D0968C1F38101022987
:102750004AD00228504607D0C8F8600000E03CE0AC
:10276000FFF794FA04463BE04746C8F86000FFF7DD
:102770008DFA064605E000BFFFF788FA801B0228A5
:102780002BD828688001F7D4D4E907010843A16A4F
:102790002E4A490802EB0141626A41EA821108436C
:1027A00094F82C1040EA0161C9F800100120386645
:1027B000FFF76CFA044606E03EE000BFFFF766FA5A
:1027C000001B022809D828688001F7D534E000BF33
:1027D000FFF75CFA001B022802D90320BDE8F88F3E
:1027E00028688001F4D427E00128F7D0D9F8000048
:1027F000E26900F4800191421CD1226A00F03F019D
:10280000914217D147F6C071626A0140B1EB821F55
:1028100010D1A26A4FF0FF3300F4403103EB5202B3
:10282000B1EB024F06D194F82C1000F07060B0EBC1
:10283000016F01D00120D1E70020CFE7043802402A
:1028400000004742800E4742007000400000FFFF3A
:102850002DE9FE430446002603200D4684F834008B
:10286000606C03285ED0B5F5805F5BD04FF40067E5
:1028700000204FF08068BD421FD18146009001903A
:102880000021206801F033FE800113D46946204600
:1028900002F06AF907000DD10198400334D5B4F86D
:1028A00050000104206801F053FE070002D102210C
:1028B000206823E0A06B384328E01DB1A06B40F0F6
:1028C000006023E08146009001900021206801F023
:1028D0000EFE8001EED46946204602F045F907005D
:1028E000E8D10198C0030FD5B4F850000104206866
:1028F00001F02EFE0700DDD10021206801F075FEF9
:102900000700D7D14F46D5E74746D3E7A063A06B72
:10291000144F4FF0010848B12068876384F8348071
:1029200001260EE0A06B40F08050EFE7211DD4E9B6
:10293000050C0EC9CDE90050CDF808C0206801F0A3
:10294000D9FD4FF40071206801F036FE28B12168EE
:102950008F63A16B0143A163012684F83480304664
:10296000BDE8FE83FF054000F0B5426E920F0A708D
:10297000426EC2F383624A70426EC2F301628A7091
:10298000426E120CCA70B0F86420120A0A7190F8F4
:1029900064204A71826E120DCA80826EC2F30342B5
:1029A0000A72B0F86820C2F3C0324A72B0F86820E8
:1029B000C2F380328A72B0F86820C2F34032CA7221
:1029C000B0F86820C2F300320A7300264E73426CDE
:1029D0004FF40075012462B1012A3AD002684749D8
:1029E0009163816B41F08051816380F83440012014
:1029F000F0BDB0F86820C36E9205120D42EA9372E2
:102A00000A61C26EC2F3C2620A75C26EC2F302628A
:102A10004A75C26EC2F342528A75C26EC2F38242D6
:102A2000CA75C26EC2F3C2320A760A69521C426586
:102A30000B7E03F007039B1C9A4042650B7A03F060
:102A40000F0704FA07F383655B0A5A43C0E91725A9
:102A50000EE090F86820C36E9206920A42EA134292
:102A60000A610A69521C92024265C0E91652056663
:102A700030F86C2FC2F3803201F8192F0288C2F3AC
:102A8000C6124A70027802F07F028A704268D20F42
:102A9000CA704268C2F341720A714268C2F382622C
:102AA0004A714268C2F383528A714268C2F340524B
:102AB000CA710E724268C2F300424A728288C2F33F
:102AC000C0328A728288C2F38032CA728288C2F3AC
:102AD00040320A738288C2F300324A738288C2F39A
:102AE00081228A738288C2F30122CA730079C0F3FB
:102AF000460008744C740020F0BD0000FF05400043
:102B0000426C0A60826C4A60C26C8A60026DCA6064
:102B1000426D0A61826D4A61C26D8A61006EC86150
:102B20000020704770B50446B0F85000002501043D
:102B3000206801F042FE18B1A16B0143A16304E0DB
:102B40000021206801F0D3FC0546C5F3432070BD89
:102B500070B504000ED094F83400002518B925771C
:102B6000204600F04DF8032084F83400204600F0A1
:102B70000BF808B1012070BDA5632563012084F81E
:102B80003400002070BD0000FEB50025044676200C
:102B90000095CDE901502B462A462946206801F0D0
:102BA000A9FC154E46F8A05F206801F0B5FC012590
:102BB00035600220FEF734FF204602F0BDF828B150
:102BC00084F83450A16B0143A16313E0204602F066
:102BD0003BF80028F4D14FF40071206801F0ECFCC0
:102BE000002808D0226805499163A16B0143A163C5
:102BF00084F834500120FEBD00802542FF054000CE
:102C0000F0B587B0044614216846FDF737FB1D492F
:102C10002068884233D11C480024016841F40061D7
:102C20000160006800F400600590174814380168DE
:102C300041F004010160016801F00401059101689F
:102C400041F0080101600068022500F008000590CD
:102C50004FF4F850CDE9000502AA03260C2782E8BC
:102C6000D00069460948FEF7EDFE0420CDE90005D5
:102C700002AA694682E8D0000548FEF7E3FE07B0E5
:102C8000F0BD0000002C0140443802400008024022
:102C9000000C02402DE9F04F87B09B4616460D46CA
:102CA0000446FEF7F3FF00903DB194F8340001288C
:102CB00007D0A06B40F000500DE0A06B40F000602A
:102CC00009E00020A063E26D06EB0B01914204D9FC
:102CD000A06B40F00070A0638AE0032184F83410F8
:102CE0002168C862616C012900D076024FF0FF3183
:102CF00001914FEA4B2102914FF0010803AA902164
:102D000002278146CDF8188082E8820201A9206856
:102D100001F0D7FBBBF1010F05D9276331462068CD
:102D200001F0BCFC05E0C4F830803146206801F0B9
:102D3000CEFCDFF83CA130B12268C2F838A0A16B0C
:102D40000143A16350E0029E1FE0406B000413D5D5
:102D500096B10027206801F0E3FB05F8010B010A9A
:102D600005F8011B010C05F8021B000E361F7F1C25
:102D700005F8010C082FEDD3FEF788FF01460098F7
:102D8000091A1098814220D2F8B12068426B40F2B3
:102D90002A310A42D9D0416BC90509D5BBF1010FCF
:102DA00006D9616C032903D001F038FD0028C3D196
:102DB0002068416B090702D4416B89051AD5C0F818
:102DC00038A0A06B40F0080050E02168C1F838A09E
:102DD000A06B40F00040A06384F83480C4F83090C9
:102DE000032007B0BDE8F08F84F83480C4F8309039
:102DF0000120F6E7416B890705D5C0F838A0A06B24
:102E000040F0020032E0416B89061BD5C0F838A0C3
:102E1000A06B40F0200029E001F082FB05F8010BD7
:102E2000010A05F8011B010C05F8021B000E05F84C
:102E3000010C361FFEF72AFF0099411A10988142B3
:102E40000ED268B12068416B890201D5002EE3D112
:102E5000216840F23A50886384F834800020C0E74B
:102E60002168C1F838A0A06B40F00040A063BBE728
:102E7000FF0540002DE9F04F8DB09B4616460D46EC
:102E80000446FEF703FF0A903DB194F83400012890
:102E900007D0A06B40F000500DE0A06B40F0006048
:102EA00009E00020A063E26D06EB0B01914204D91A
:102EB000A06B40F00070A0637AE0032184F8341026
:102EC0002168C862616C012900D076024FF0FF31A1
:102ED00003914FEA4B2104919021CDE905104FF069
:102EE0000109CDE90709824603A9206801F0E9FA42
:102EF000BBF1010F06D9202020633146206801F084
:102F0000A7FC05E0102020633146206801F0B9FCE1
:102F10005FEA000806D0216841488863A06B40EA58
:102F2000080074E0049E27E0406B40041CD5DEB12D
:102F30005FF0000715F8010B009015F8011B361F14
:102F400040EA0120009015F8021B40EA0140009081
:102F500015F8011C40EA016000906946206801F004
:102F6000F2FA7F1C082FE5D3FEF790FE0A99411A6A
:102F70001698814220D2F8B12068416B40F21A3293
:102F80001142D1D0416BC90523D5BBF1010F20D926
:102F9000616C03291DD001F041FCD0B122682049A9
:102FA0009163A16B0143A16384F83490C4F830A00D
:102FB00001200DB0BDE8F08F216819488863A06B2F
:102FC00040EA0800A06384F83490C4F830A00320DD
:102FD000EFE72068416B090702D4416B890505D5ED
:102FE0000F498163A06B40F0080010E0416B890736
:102FF00005D50B498163A06B40F0020007E0416BEF
:10300000C90606D506498163A06B40F01000A06395
:10301000CAE740F23A51816384F834900020C8E74F
:10302000FF05400070B5040009D0606A002540B17A
:1030300025616561A56294F8510040B10CE0012062
:1030400070BD6068B0F5827FF4D0E561F2E784F886
:103050005050204600F044F8022084F851002068C7
:10306000016821F040010160A088218900F482708C
:1030700001F404410843A18901F400610843217C63
:1030800001F002010843217D01F001010843218B79
:1030900001F400710843217F01F03801084394F8DE
:1030A000201001F080010843218D01F400510843F4
:1030B00021680860A069042101EA104094F82410F6
:1030C00001F010010843216848602068C16921F4BB
:1030D0000061C1616565012084F85100002070BD68
:1030E00010B586B0044614216846FDF7C7F81449A8
:1030F0002068884221D113480021026842F48042AE
:103100000260006800F4804005900E4810380268A4
:1031100042F002020260006800F0020005904FF4E5
:10312000604000900220CDE90101032003900520BA
:10313000049069460448FEF785FC06B010BD000007
:103140000038004040380240000402402DE9FF4FA3
:1031500081B01D46934604464FF001090E9EFEF7CE
:1031600095FD074694F851006168012806D0B1F535
:10317000827F3CD1A168C9BB042838D102980028BD
:1031800071D0BBF1000FFBD0002DF9D094F85000A6
:1031900001282CD04FF0010A84F850A094F8510077
:1031A000042802D0052084F851004FF00008C4F82C
:1031B0005480C4F838B0E587A58702992163E58675
:1031C000A586C4F84080C4F8448020680168490698
:1031D00003D4016841F040010160E068B0F5006F80
:1031E000606808D0F0B3012D49D081E0FFE70220EC
:1031F00005B0BDE8F08F08B1012D39D1206B2168F1
:103200000088C860206B801C2063E08E401EE08632
:103210002EE02068816889070FD5E18E69B1B9F188
:10322000010F0AD1216B0988C160206B801C2063CB
:10323000E08E401EE0864FF0000920688168C907D3
:103240000CD0E18F51B1C068A16B0880A06B801CCD
:10325000A063E08F401EE0874FF00109FEF716FDE6
:10326000C01B01E00BE067E0B04201D3701C50D1FD
:10327000E08E0028CDD1E08F0028CAD13EE0206B3F
:10328000216800780873206B401C2063E08E401E8C
:10329000E0862DE02068816889070FD5E18E69B14D
:1032A000B9F1010F0AD1216B09780173206B401C21
:1032B0002063E08E401EE0864FF0000920688168A0
:1032C000C9070CD0E18F51B1C068A16B0870A06B29
:1032D000401CA063E08F401EE0874FF00109FEF71D
:1032E000D5FCC01BB04202D3701C01D011E086B1E6
:1032F000E08E0028CED1E08F0028CBD13A4631466F
:10330000204601F0D5FD50B12020606584F8508042
:1033100012E084F851A084F85080032068E7A06888
:1033200018B92068C1688068009084F851A084F8BA
:103330005080606D0028F1D0012059E710B5401E83
:10334000B0F1807F01D3012010BD4FF0E024606117
:103350000F21601702F017FA0020A06107202061FA
:10336000002010BD70B590F83C20012A32D0012415
:1033700080F83C40022280F83D2003685A689D682E
:1033800022F070060A6832435A60134B02689A4270
:1033900014D0B2F1804F11D0104B9A420ED0104B86
:1033A0009A420BD00F4B9A4208D00F4B9A4205D04D
:1033B0000E4B9A4202D00E4B9A4204D1496825F036
:1033C00080031943916080F83D40002180F83C1053
:1033D000084670BD022070BD00000140000400409E
:1033E00000080040000C0040000401400040014083
:1033F0000018004010B5040003D094F83D0010B14F
:1034000007E0012010BD002084F83C00204600F0B9
:103410001FF8022084F83D00211D206801F060FEA5
:10342000012084F8460084F83E0084F83F0084F8C8
:10343000400084F8410084F8420084F8430084F896
:10344000440084F8450084F83D00002010BD0000D1
:1034500008B50C4A01680C48914207D1016841F057
:1034600002010160006800F0020009E0074A914291
:1034700007D1016841F010010160006800F0100000
:10348000009008BD00040040403802400010004099
:1034900090F83D10012901D001207047022180F8E9
:1034A0003D1000681149884214D0B0F1804F11D00E
:1034B0000F4988420ED00F4988420BD00E498842EE
:1034C00008D00E49884205D00D49884202D00D49E6
:1034D000884204D1816801F00701062903D0016800
:1034E00041F0010101600020704700000000014030
:1034F0000004004000080040000C004000040140AF
:10350000004001400018004070B5044690F83C00AF
:103510000025012817D0012684F83C60022084F899
:103520003D002068826822F0770222F47F428260A8
:103530000868502838D00DDC20284FD005DC90B327
:10354000102811D14AE0022070BD302846D0402812
:103550000AD13BE060282FD070280DD0B0F5805FF5
:1035600003D0B0F5005F12D0012584F83D60002043
:1035700084F83C00284670BDCB68D1E90121206861
:1035800001F016FE2068816841F0770109E0CB6800
:10359000D1E90121206801F00BFE2068816841F427
:1035A00080418160E1E719E0CA684968206801F05C
:1035B00011FE5021206806E0CA684968206801F0C1
:1035C0001AFE6021206801F0FDFDCEE7CA68496857
:1035D000206801F0FFFD40212068F4E722680146E1
:1035E0001046F0E738B5044690F84200202801D094
:1035F000022038BD51B14AB1012020630020606330
:10360000204601F0A5FF216B012901D0012038BD22
:1036100021680A684968009121680C3151E8002F3F
:1036200042F0100241E80023002BF5D138BD000024
:1036300070B50D46044600681B49884217D12046E4
:1036400000F042F819492A4601F5007008F045FEDD
:1036500080211648FCF712FE802214491448FFF717
:10366000C1FF14480068016821F008010160124997
:103670002068884217D1204600F026F80F492A46D4
:1036800001F5867008F029FE80210C48FCF7F6FD54
:1036900080220A490A48FFF7A5FF0A480068016826
:1036A00021F00801016070BD00100140040B0020F2
:1036B000EC0400203405002000140140040C00201C
:1036C000F40500209405002010B504460068406908
:1036D00094F84110C0F3C010212911D180B12068A5
:1036E000143050E8001F21F0800140E80012002A49
:1036F000F5D1A06B08B1FDF7C5FF204601F032FE01
:103700002068406994F84210C0F38010222911D13A
:1037100080B12068143050E8001F21F0400140E8DB
:103720000012002AF5D1E06B08B1FDF7ABFF20468F
:1037300001F0F1FD002010BD70470000F8B50168F0
:1037400004460868CA684B6910F00F0F4FF0000577
:1037500059D003F0010602F49077374365D0C107D2
:1037600005D0D10503D5616C41F0010161644107C9
:1037700005D5D90703D0616C41F00201616481076E
:1037800005D5D90703D0616C41F0040161640107DC
:1037900007D502F02001314303D0616C41F00801EC
:1037A0006164616C00293AD0800604D5900602D588
:1037B000204601F0E5FD20684069616CC0F380108F
:1037C000090700D460B3204601F0A5FD20684069D8
:1037D000400621D52068143050E8001F21F0400138
:1037E00040E80012002AF5D1E06BA8B172490165EA
:1037F000E06BFDF790FF002811D0E06B016D01B088
:10380000BDE8F040084783060FD593060DD5204646
:10381000BDE8F84001F0B4BD2046FFF78DFFF8BDCC
:103820002046FFF789FF6564F8BD266B2023012E33
:103830007ED1C6067CD5D6067AD508684868009041
:1038400048694FF0020640064DD5E26B10684068AB
:103850004FF480770004000C3AD0A18D814237D913
:10386000E085D069B8422DD020680C3050E8001FA8
:1038700021F4807140E80012002AF5D1206814304C
:1038800050E8001F21F0010140E80012002AF5D1A4
:103890002068143050E8001F21F0400140E8001279
:1038A000002AF5D184F84230256320680C3050E8B6
:1038B000001F21F0100140E80012002AF5D1E06B52
:1038C000FDF7E0FE6663A08DE18D401A81B206E04F
:1038D000A18D8142A8D1D069B842A5D166632046A6
:1038E000FFF7A6FEF8BDA08DE18D401A81B2E08DF4
:1038F0000028F7D00029F5D020680C3050E8002FC0
:1039000022F4907240E80027002FF5D1206814308F
:1039100050E8002F22F0010240E80027002FF5D1E7
:1039200084F84230256320680C3050E8002F00E016
:1039300006E022F0100240E80023002BF3D1CDE78F
:1039400005062BD5150629D594F841002128C9D1A3
:10395000A068B0F5805F01D12069B0B1206A411C38
:103960002162216800784860E08C401E0004000C51
:10397000E084B7D12068C16821F08001C16020686F
:10398000C16841F04001C160F8BD206A0088C0F301
:1039900008004860206A801C2062E5E74006F3D5F5
:1039A0005006F1D5CA68204622F04002CA6084F869
:1039B000413000F048F9F8BD1B52000870B5040012
:1039C00004D094F84100002510B106E0012070BD3C
:1039D00084F84050204600F023F8242084F8410069
:1039E0002068C16821F40051C160204601F02AFD21
:1039F0002068016921F4904101612068416921F04A
:103A00002A0141612068C16841F40051C1606564C8
:103A1000202084F8410084F842006563002070BDD6
:103A2000F0B587B0064614216846FCF727FC4148EC
:103A30004049DFF8FCC03568002414390222032312
:103A40000715654535D1056845F010050560006826
:103A500000F010000590086840F001000860086858
:103A6000694600F00100059058028DE81500072016
:103A7000CDE903303048FDF7E5FF314D2F48286090
:103A80007804C5E90104C5E903476C61AC61EC61E8
:103A90002C6228466C62FDF721FF08B1FDF70FF993
:103AA000F563002211462520AE63FEF7C5FB2520F5
:103AB0003AE0DFF890C0654538D1056845F020054B
:103AC0000560006800F020000590086840F00400E0
:103AD00008600868694600F004000590C0208DE881
:103AE00015000820CDE903301748FDF7ABFF144D52
:103AF00012486035183828608005C5E90104C5E919
:103B000003476C61AC61EC612C6228466C62FDF786
:103B1000E5FE08B1FDF7D3F8F56300221146472012
:103B2000AE63FEF789FB4720FEF778FB07B0F0BDD8
:103B3000001001404438024000000240406402404E
:103B400034050020001401400008024090F8423083
:103B5000202B01D00220704721B11AB1002303634A
:103B600001F046BD012070470068094988420DD127
:103B700008480168084841600188491C89B20180F1
:103B80000648012201440648FFF7E0BF70470000E5
:103B9000001001400800002050010020840A00208D
:103BA000EC04002070472DE9F843044690F84100EA
:103BB000984616460D46202802D00220BDE8F8831C
:103BC00085B17EB100206064212084F84100FEF7B9
:103BD0005DF8A6848146E684A0682027B0F5805F62
:103BE00002D003E00120E9E7206910B12E4600254C
:103BF0000EE000260CE08021204601F014FDA8B95B
:103C0000C6B116F8010B21684860E08C401EE084C4
:103C1000E08C4B464FF00002CDF800800028EAD13E
:103C20004FF04001204601F0FEFC40B184F84170A5
:103C30000320C3E735F8020BC0F30800E3E784F87C
:103C400041700020BAE77047FEE701684A69D24335
:103C500052050FD46FF480624A61002140F8301F92
:103C6000202242738173026942F0040202610173EF
:103C70000120704700207047F8B50446C06A1E4610
:103C80000D461746082807D0012805D010F5803FBB
:103C900002D0206B122804D12068016841F48071A1
:103CA0000160134600224FF001112046009600F0FB
:103CB000B1F840B120680068C00502D54FF400702B
:103CC00020640320F8BD2069B0F5804F0ED0062097
:103CD000216800EAD51040F0F000086133463A460A
:103CE0000B49204600F0DEF878B902E005F0FE004E
:103CF00000E0E8B221680861054933463A46891F69
:103D0000204600F0CFF80028DCD00120F8BD0000EC
:103D1000080001002DE9F843044600680D46DDE97E
:103D2000089701689846164641F4807101604B4639
:103D300000224FF001112046009700F06BF848B1C7
:103D400020680068C00502D54FF40070206403208D
:103D5000BDE8F883216805F0FE0008613B464A464D
:103D60001549204600F09EF888B9206841698069AD
:103D700000903A464946204600F0F2F848B1206CDF
:103D8000042804D12068016841F400710160012019
:103D9000DEE7F5B2B8F1010F09D02168300A0861F9
:103DA0003A464946204600F0DBF80028E7D1206873
:103DB00005610020CCE700000200010070B5164646
:103DC0000D4604461EE02046FFF73FFF08B10120E4
:103DD00070BD681C16D0FDF759FF801BA84200D8A3
:103DE00085B920684069C04340070BD5002044F8DE
:103DF000300F20216173A073216941F020012161FE
:103E00002073E4E720684069C0434007DBD400200A
:103E100070BD00002DE9F047984617460D46044650
:103E2000C1F30746DDF820902AE000BFB8F1FF3F5C
:103E300026D0FDF72BFFA0EB0901414502D8B8F1D0
:103E4000000F1DD12068012E16D0806925EA0000E0
:103E50000004000C12D00020B84211D1002044F818
:103E6000300F20216173A073216941F0200121618D
:103E700020730120BDE8F0874069E7E70120EBE708
:103E80002068012E0AD0806925EA00000004000C99
:103E900006D00020B842C9D00020EBE74069F3E724
:103EA0000120F7E72DE9F047984616460D460446EF
:103EB0004FF000094FF0200AC1F3074723E02068C4
:103EC0004069C043400515D42068016841F4007181
:103ED000016021686FF480604861C4F8309084F814
:103EE0003DA084F83E90216C41F00401216484F8E7
:103EF0003C9021E0701C06D0FDF7C8FEA0EB080046
:103F0000B04203D816B1012F1FD021E02068012F45
:103F100015D0806925EA00000004000C18D000BF0D
:103F200044F8309F84F80DA084F80E90216941F088
:103F30002001216184F80C900120BDE8F0874069E0
:103F400025EA00000004000CEAD12068406901E085
:103F50002068806925EA00000004000CAFD1ECE77E
:103F600070B516460D4604461EE02046FFF76DFE6E
:103F700008B1012070BD681C16D0FDF787FE801BBC
:103F8000A84200D885B920684069C04300060BD517
:103F9000002044F8300F20216173A073216941F0A3
:103FA000200121612073E4E720684069C0430006D6
:103FB000DBD4002070BD00007FB500241B480094B6
:103FC0000194029418490394016001254FF4803153
:103FD0000561C0E90114047680F820400903C1623C
:103FE0000226C6614910C460816280F83040456194
:103FF000FDF7D5F808B1FCF762FE0A20CDE900050F
:10400000694602940948FCF771FF08B1FCF757FEB6
:104010000520CDE9000669460448FCF767FF002843
:1040200001D0FCF74CFE7FBD0020014010020020B3
:104030001CB500240C4900940A4801940860084605
:10404000FDF74BFA08B1FCF73AFE0420CDE9000475
:10405000002269460448FDF716FA002801D0FCF753
:104060002EFE1CBD00740040B8020020194808B59F
:10407000016841F480010160016801F48001009150
:10408000016841F4001101600068002200F4001092
:10409000009011461020FEF7CFF81020FEF7BEF872
:1040A000002211463820FEF7C7F83820FEF7B6F890
:1040B000002211463920FEF7BFF83920FEF7AEF88E
:1040C000002211463A20FEF7B7F8BDE808403A2032
:1040D000FEF7A4B83038024010B504490448FCF794
:1040E000F0FD0249491E087010BD00005D0100206E
:1040F0000CE400082DE9F04186B014216846FCF775
:10410000BDF832480024016841F080010160016877
:1041100001F080010591016841F00401016001682E
:1041200001F004010591016841F00101016001689D
:1041300001F001010591016841F00201016001688F
:1041400001F002010591016841F010010160016870
:1041500001F010010591016841F00801016000685B
:104160001B4F00F008004FF48656059000223146A0
:104170003846FDF786FDDFF85C80002203214046CB
:10418000FDF77FFD0125CDE90054694638460295CB
:10419000FDF758FC4AF680208DE83100694640461C
:1041A000FDF750FC0096CDE901546946384603946A
:1041B000FDF748FC03200090CDE9015469464046D4
:1041C0000394FDF73FFC06B0BDE8F08130380240B3
:1041D0000004024000100240144810B5124901606A
:1041E0001349416000214FF480428160C0E903120D
:1041F00041618161C1610162FDF78EFD08B1FCF78B
:104200005EFD00210948FDF747FD08B1FCF757FDA9
:1042100000210648FDF761FD002803D0BDE81040ED
:10422000FCF74DBD10BD0000005400402C030020E1
:10423000801A06000648054901600021416081603E
:104240000622C160C0E9051201617047002C0140DF
:1042500080030020104810B50E4901604FF48271B0
:104260004160002102228160C0E903120122426103
:104270005202C0E906210162416281620A21C162E3
:10428000FEF7D0FE002803D0BDE81040FCF717BDB4
:1042900010BD0000003800400404002010B586B0B6
:1042A0000024174800940194029403940494134941
:1042B00005940160B321C0E901146321C0E903142E
:1042C0008461FFF797F808B1FCF7F9FC4FF48050D0
:1042D000009069460A48FFF717F908B1FCF7EFFCB0
:1042E0002020CDE9040404A90548FFF73BF8002885
:1042F00001D0FCF7E4FC06B010BD00000004004053
:104300005C0400201CB500240F4800940D49019462
:104310000160B321C0E901146321C1608021816182
:10432000FFF768F808B1FCF7CAFC2020CDE90004CB
:1043300069460548FFF716F8002801D0FCF7BFFCD6
:104340001CBD000000100040A4040020114810B55E
:104350000F4901604FF4E1314160002181600C227E
:10436000C160C0E904128161C161FFF727FB08B198
:10437000FCF7A5FC802208490648FFF733F90548F9
:1043800048300068016821F00801016010BD00009C
:1043900000100140EC040020040B0020114810B56F
:1043A0000F4901604FF4E1314160002181600C222E
:1043B000C160C0E904128161C161FFF7FFFA08B171
:1043C000FCF77DFC802208490648FFF70BF90548F9
:1043D00060380068016821F00801016010BD00002C
:1043E00000140140F4050020040C0020FEE7FEE765
:1043F00070B5002404F1B000C0B200F03DF8002018
:1044000000F03AF8102000F037F80025002000F006
:1044100045F86D1CEDB2802DF8D3641CE4B2042C79
:10442000E8D370BD70B56420FDF7FAFA084D00249A
:10443000285D00F021F8641CE4B2162CF8D3FFF7D5
:10444000D7FFBDE870400021084600F003B8000027
:104450000C00002010B50446B031C8B200F00CF8D2
:10446000102040EA141000F007F804F00F00BDE837
:10447000104000F001B8000001B584B001214FF4F4
:10448000807204A88DE807000B46002278210248BC
:10449000FDF79CFD05B000BD2C03002001B584B0E4
:1044A00001214FF4807204A88DE807000B464022DA
:1044B00078210248FDF78AFD05B000BD2C030020DD
:1044C00070470A6842624A688262D1E902231A434D
:1044D000D1E904310B43C16A1A4321F0F7011143BA
:1044E000C16200207047006800F003007047084474
:1044F0004069704770B50DF1100C11439CE87000D5
:104500002343194329434268314347F6FF639A43E3
:104510000A434260002070BD032101600020704703
:10452000D0F8800070470A688260D1E901231A43FD
:10453000D1E903310B43C1681A436FF30B011143F7
:10454000C160002070470968C0F8801000207047E3
:1045500010B585B004463720CDE900104020029008
:10456000002003904FF48060049069462046FFF7D6
:10457000DAFF41F288323721204600F09BF905B07E
:1045800010BD000010B504460A4885B0014329203B
:10459000CDE9001040200290002003904FF480608D
:1045A000049069462046FFF7BEFF204600F03AFA25
:1045B00005B010BD0000108010B585B00446102075
:1045C000CDE9001040200290002003904FF480605D
:1045D000049069462046FFF7A6FF41F28832102179
:1045E000204600F067F905B010BD10B585B004464F
:1045F0000620CDE9001040200290002003904FF4E7
:104600008060049069462046FFF78DFF41F28832B2
:104610000621204600F04EF905B010BD30B585B03A
:1046200000240546009401944FF480600294CDE983
:10463000034069462846FFF776FF0B484FF4FA51CE
:104640000068B0FBF1F041F288314843401E03D2CC
:104650004FF0004005B030BD696B0906F6D5C520A6
:10466000A8632046F6E700002800002010B585B0BA
:1046700004464FF4D570009008200190402002902D
:10468000002003904FF48060049069462046FFF7B5
:104690004AFF204600F02CFA05B010BD10B585B0D9
:1046A00004461220CDE90010402002900020039023
:1046B0004FF48060049069462046FFF734FF41F2D2
:1046C00088321221204600F0F5F805B010BD10B573
:1046D00085B004461120CDE9001040200290002052
:1046E00003904FF48060049069462046FFF71BFF5B
:1046F00041F288321121204600F0DCF805B010BDEF
:1047000010B585B004460720CDE900204020029076
:10471000002003904FF48060049069462046FFF724
:1047200002FF41F288320721204600F0C3F805B0AD
:1047300010BD10B585B0044600210220CDE900105F
:10474000C020CDE902014FF4806004906946204604
:10475000FFF7E9FE204600F03DF905B010BD10B5A9
:1047600085B004460920CDE90010C0200290002049
:1047700003904FF48060049069462046FFF7D3FE13
:10478000204600F027F905B010BD10B585B00446ED
:1047900000213320CDE900104020CDE902010001C5
:1047A000049069462046FFF7BEFE41F2883233216D
:1047B000204600F07FF805B010BD10B585B0044666
:1047C0000D20CDE9001040200290002003904FF40E
:1047D0008060049069462046FFF7A5FE41F28832CA
:1047E0000D21204600F066F805B010BD30B585B04B
:1047F0000C46054600210320CDE900104020CDE9FC
:1048000002010001049069462846FFF78CFE22460B
:104810000321284600F028F905B030BD10B585B059
:10482000044600210C20CDE900104020CDE9020112
:104830000001049069462046FFF775FE034A0C21EB
:10484000204600F037F805B010BD000000E1F50586
:1048500010B585B004461920CDE900104020029023
:10486000002003904FF48060049069462046FFF7D3
:104870005AFE41F288321921204600F01BF805B09B
:1048800010BD10B585B004461820CDE900104020B9
:104890000290002003904FF4806004906946204607
:1048A000FFF741FE41F288321821204600F002F85D
:1048B00005B010BD454B10B51B684FF4FA54B3FB5F
:1048C000F4F353435B1E02D24FF0004010BD426B25
:1048D00012F0450FF6D01205F4D4426B520703D5FF
:1048E00004218163084610BD426BD20702D001212A
:1048F000816305E0C52282630269D2B28A4201D097
:10490000012010BD0021FFF7F2FD3149084201D11D
:10491000002010BD002802DA4FF0007010BD4100E9
:1049200001D5402010BD810001D5802010BDC100FF
:1049300002D54FF4807010BD010102D54FF4007014
:1049400010BD410102D54FF4806010BDC10102D5F8
:104950004FF4006010BD010202D54FF4805010BD2D
:10496000410202D54FF4005010BD810202D54FF430
:10497000804010BDC10202D54FF4004010BD41037C
:1049800002D54FF4003010BD810302D54FF48020D2
:1049900010BDC10302D54FF4002010BD010402D5A3
:1049A0004FF4801010BD410402D54FF4001010BD2B
:1049B000810402D54FF4800010BD000702D54FF4EA
:1049C000000010BD4FF4803010BD00002800002012
:1049D00008E0FFFD12494FF4FA520968B1FBF2F109
:1049E00041F288325143491E02D24FF000407047D5
:1049F000426B12F0450FF6D01205F4D4416B490713
:104A000003D50421816308467047416BC90703D071
:104A10000121816308467047C521816300207047EA
:104A2000280000200F494FF4FA520968B1FBF2F157
:104A300041F288325143491E02D24FF00040704784
:104A4000426B12F0450FF6D01205F4D4416B4907C2
:104A500003D50421816308467047C5218163002086
:104A6000704700002800002030B5204B4FF4FA5466
:104A70001B68B3FBF4F341F2883463435B1E02D23C
:104A80004FF0004030BD446B14F0450FF6D02405C4
:104A9000F4D4436B5B0703D504218163084630BD22
:104AA000436BDB0702D00121816303E00369DBB2C2
:104AB0008B4201D0012030BDC52181630021FFF769
:104AC00016FD10F4604F04D0410406D54FF4005099
:104AD00030BD000C1080002030BD000402D54FF422
:104AE000805030BD4FF4803030BD000028000020E1
:104AF00014494FF4FA520968B1FBF2F141F28832DD
:104B00005143491E02D24FF000407047426B12F0F1
:104B1000450FF6D01205F4D4416B490703D50421A3
:104B2000816308467047416BC90703D00121816347
:104B300008467047416B490601D54021816300203A
:104B4000704700002800002010B5064C012020709E
:104B5000FBF7CAFF18B9207820F0010020702078F8
:104B600010BD00005B0100202DE9F04788B00D4624
:104B70000446FDF78BF800268246009601963746DC
:104B800008212068FFF718FD00282CD1B4F8500048
:104B900001042068FFF7DCFC002824D1401E4FF000
:104BA0000808CDE9020830204FF00209CDE90409D8
:104BB0000120CDE9067002A92068FFF782FC206879
:104BC000FFF7E3FD00280ED16F462068416B11F01E
:104BD0002A0F0BD0416B090702D4416B89051AD506
:104BE000C0F83880082008B0BDE8F087416B890222
:104BF00005D5FFF795FC47F82600761C02E0416BCF
:104C00008904E7D5FDF742F8A0EB0A00401CDCD18F
:104C10004FF00040E7E7416B890703D5C0F83890B3
:104C20000220E0E7416B890603D520218163084615
:104C3000D9E740F23A518163019800BA28600098A0
:104C400000BA68600020CEE710B590B0044601209D
:104C5000ADF838002068FFF746FC002854D0606C9F
:104C6000032842D02068FFF764FD00284AD10021C4
:104C70002068FFF73CFC606704212068FFF737FCE1
:104C8000A06708212068FFF732FCE0670C2120684C
:104C9000FFF72DFCC4F88000606C032825D00EA916
:104CA0002068FFF7A3FD00282CD1606C03281CD0DE
:104CB000BDF83800206501042068FFF750FD00288A
:104CC00020D100212068FFF712FC606604212068D3
:104CD000FFF70DFCA06608212068FFF708FCE066DE
:104CE0000C212068FFF703FC206704212068FFF7F0
:104CF000FEFB000DE06403A92046FDF735FE30B150
:104D00004FF0805010B010BD4FF08060FAE7B4F85B
:104D10005000002302042068FFF7F2FC0028F1D1C4
:104D200004F1100007C88DE8070094E80F00FFF7B2
:104D3000E1FB0020E6E700002DE9F84F00260446DD
:104D400000963546B0460068FFF768FC002827D17A
:104D50002068FFF78BFC4FF0805B4FF001094FF6A6
:104D6000FF7748B1A6642068FFF758FC002817D1E8
:104D7000A06C012802D020E0C4F8489000212068EF
:104D8000FFF7E6FB58B918E000212068FFF7E0FBC9
:104D9000002805D151462068FFF7F4FB10B15846B2
:104DA000BDE8F88F00212068FFF7A1FB05464FEA18
:104DB000D0780098401C009002E0DFF82CA000980A
:104DC000B84202D2B8F1000FDED00098B84202D348
:104DD0004FF08070E4E7680002D5C4F8449000E02A
:104DE00066640020DCE70000000010C170B5064CCE
:104DF000054601202070FBF783FE18B92846FFF70F
:104E0000A3FE2070207870BD5B01002010B5124811
:104E100088B014460078C00702D0032008B010BD47
:104E2000C1B1012905D0022908D003290CD00420E2
:104E3000F4E76846FBF752FE06980AE06846FBF77F
:104E40004DFE0798208005E06846FBF747FE07986F
:104E5000400A20600020E1E75B01002070B51D469C
:104E6000164608460124A31E2A463146FBF768FE73
:104E700028B900BFFBF738FE0028FBD100242046EC
:104E800070BDFFF761BE000070B51D4616460846AE
:104E90000124A31E2A463146FBF762FE28B900BF53
:104EA000FBF722FE0028FBD10024204670BD000045
:104EB000F8B515460E460B46009204460122022123
:104EC00000F02CF8A0B9134813490068B0FBF1F0CA
:104ED0004FF47A71484300906068B0F5827F0DD13D
:104EE0003346002280212046009500F017F870B16B
:104EF000606D40F0200060650320F8BD009830B17F
:104F0000401E009020688068C0430006F6D500204F
:104F1000F8BD00002800002000366E012DE9F8439E
:104F20001E46914688460446089DFCF7AFFE401B8E
:104F3000351AFCF7ABFE074626480068C0F3CB30B5
:104F400068430AE0701C09D0FCF7A0FEC01BA84211
:104F50000FD275B10098B8B3401E009020688168E8
:104F600038EA010033D000214945EBD10020BDE8EB
:104F7000F8832068416821F0E00141606068B0F585
:104F8000827F0BD1A068B0F5004F02D0B0F5806FE2
:104F900004D12068016821F040010160A06AB0F5E9
:104FA000005F09D12068016821F400510160206888
:104FB000016841F400510160012084F85100002093
:104FC00084F850000320D2E7FFE70025C6E701215F
:104FD000CAE7000028000020704700001149B5EE24
:104FE000C00AF1EE10FA48681BD0401CDFED0E0A33
:104FF00060EE200A00EE100AB8EE400A20EE800AA9
:10500000DFED0A0A80EE801ABCEEC10A10EE100A2B
:10501000401EB0F5803F01D34FF6FF700A68D062A2
:10502000C8607047A40400200000C8424054894C66
:10503000FDF79AB870B592B030216846FBF71EF9BB
:1050400014210CA8FBF71AF91F480025016841F04C
:1050500080510160006800F0805011901B48016889
:1050600041F4404101600068022400F44040119086
:1050700001200090000401908001CDE906400F2638
:105080000896D820CDE9090408200B906846FDF762
:1050900029FA08B172B6FEE7FDF700F908B172B659
:1050A000FEE74FF4A050CDE90E504FF48050CDE90B
:1050B0000C64109005210CA8FDF728F9002801D0F8
:1050C00072B6FEE712B070BD40380240007000407A
:1050D0000248016841F470010160704788ED00E00A
:1050E000F0B50268274B284D284E294F294C4FF028
:1050F000804C984209D0604507D0A84205D0B04204
:1051000003D0B84201D0A04204D122F0700E4A6808
:1051100042EA0E0298421BD0604519D0A84217D02F
:10512000B04215D0B84213D0A04211D01A4DA842B7
:105130000ED01A4DA8420BD0194DA84208D0194DD7
:10514000A84205D0184DA84202D0184DA84203D15C
:1051500022F44075CA682A434D6922F080022A432E
:105160008D68C5620D688562984201D0A04201D168
:1051700009690163016841F0040101600121416195
:105180000260F0BD00000140000400400008004043
:10519000000C004000040140004001400044014078
:1051A0000048014000180040001C00400020004062
:1051B00010B5846842EA032224F47F440A43224360
:1051C000826010BD826822F070020A4342F007013B
:1051D0008160704710B5036A046A24F00104046218
:1051E000846924F0F00444EA021423F00A020A431A
:1051F0008461026210BD10B5036A046A24F01004D1
:105200000462846923F0A00324F4704444EA023267
:1052100043EA01118261016210BD10B5806B00216B
:10522000C185FEF789FA10BD70B5846B20684069AE
:1052300094F84110C0F3C0100025212904D118B101
:10524000E584204600F08EF82068406994F842100A
:10525000C0F38010222904D118B1E585204600F062
:105260005AF8606C40F0100060642046FEF764FA63
:1052700070BD10B50146806B096809684FF00002E7
:10528000C9052ED4C28501680C3151E8003F23F4D2
:10529000807341E80034002CF5D10168143151E8E5
:1052A000003F23F0010341E80034002CF5D10168F0
:1052B000143151E8003F23F0400341E80034002C52
:1052C000F5D1202180F84210016B012909D1016834
:1052D0000C3151E8003F23F0100341E80034002C6A
:1052E000F5D14263016B012902D0FEF73DFC10BDF0
:1052F000818DFEF79DF910BD10B5806B01214163D2
:10530000016B012902D0FEF74DFC10BD818D4908CB
:10531000FEF78EF910BD01680C3151E8002F22F420
:10532000907241E80023002BF5D10168143151E857
:10533000002F22F0010241E80023002BF5D1016B80
:10534000012909D101680C3151E8002F22F0100227
:1053500041E80023002BF5D1202180F842100021E4
:105360000163704701680C3151E8002F22F0C00240
:1053700041E80023002BF5D1202180F8411070472F
:1053800008B590F84210222901D0022008BD826899
:105390004FF480539A4201D1016921B1816A9A4246
:1053A0001BD04AB10AE00268816A5268C2F308025F
:1053B0000A80816A891C08E0026972B10268526839
:1053C00002F07F020A70816A491C8162C18D491E08
:1053D0000904090CC18503D01BE002685268F1E79B
:1053E0000168CA6822F02002CA600168CA6822F413
:1053F0008072CA6001684A6922F001024A61202174
:1054000080F8421000214163026B012A03D0FEF7AD
:10541000ABFB002008BD016301680C3151E8002F8F
:1054200022F0100241E80023002BF5D101680A6840
:10543000D20602D50A6849680091818DFEF7F8F816
:10544000E7E7000070B5044600680169E26821F4EE
:105450004051114301612169A068E2690843616913
:10546000114308432168CA6849F20C639A43024316
:10547000CA6020684169A26921F440711143416109
:1054800031492068884202D03049884202D1FCF775
:10549000E7FF01E0FCF7D4FFE2690023192164254E
:1054A0003226B2F5004F626828D0A0FB0101930FAD
:1054B0009200FAF799FE0146B0FBF5F06FF0180282
:1054C000504301EB800006EB0010B0FBF5F000F05C
:1054D000F002B1FBF5F002EB0012B1FBF5F06FF05A
:1054E0001803584301EB800006EB0010B0FBF5F009
:1054F00000F00F0021681044886070BDA0FB01011E
:1055000092185B41FAF770FE0146B0FBF5F002011C
:10551000B1FBF5F06FF01803584301EB800006EB88
:10552000C000B0FBF5F000F0F80002EB4002B1FB68
:10553000F5F0584301EB800006EBC000B0FBF5F03E
:1055400000F00700D6E70000001001400014014001
:1055500038B58162044682850020134660642222A9
:1055600084F84220E56B1F4AEA63E56B1E4A2A6411
:10557000E56B1E4AEA64E26B10650A462168E06B3F
:10558000091DFCF715FA30B110206064202084F862
:105590004200012038BD2068016840680090206901
:1055A00048B120680C3050E8001F41F4807140E899
:1055B0000012002AF5D12068143050E8001F41F095
:1055C000010140E80012002AF5D12068143050E8AB
:1055D000001F41F0400140E80012002AF5D10020F0
:1055E00038BD000073520008F95200082952000823
:1055F00081628285C28500214164222180F84210A7
:10560000016921B10168CA6842F48072CA60016808
:105610004A6942F001024A610068C16841F0200114
:10562000C160002070472DE9F843984617460D46A3
:105630000446089E24E0701C22D0FCF727FBA0EB58
:105640000800B0421AD8CEB12068C168490717D502
:10565000802D15D0402D13D00168C94309070FD400
:1056600001680025406800902046FFF754FE08209E
:10567000606484F840500120BDE8F8830320FBE714
:105680002068006835EA000004D00020B842D2D07B
:105690000020F1E70120F9E70148FEF74FB80000CC
:1056A000EC0400200148FEF749B80000F405002092
:1056B000FEE7000010B50D4806F0A5FD0204120C2F
:1056C00012D00A4909488C3906F0B5FD074A08A1ED
:1056D0008C3A0B4806F024FB044880218C38FAF7FA
:1056E000CDFD09490748886210BD0000100D00205B
:1056F000756172743620646174613A2025730A0002
:10570000EC040020840A0020F40500200FB4054BAF
:1057100010B503A9044A029800F0FCFA10BC5DF829
:1057200014FB00004D7F00086C0100207CB50C00CC
:105730001D461646014601D0601E00E00020CDE95E
:105740000010064B6A462946304600F0E3FA002C6A
:1057500002D0009A002111707CBD00001B6400087B
:105760004100080218BF04200A0E18BF40F00100D3
:105770004FF07F4232EA010108BF40F002000128E9
:1057800008BF052070470907090E002804DB00F157
:10579000E02080F80014704700F00F0000F1E020D6
:1057A00080F8141D704710B52DED028BF0EE408A85
:1057B00018EE900AB0EE608A20F00040C0F1FF4081
:1057C000C00F07D118EE100A20F00040C0F1FF40D2
:1057D000C00F2BD018EE101A18EE900AFAF7D9FD68
:1057E00000EE100A10EE100A6FEAD05010F0FF0F12
:1057F00004BFBDEC028B10BD18EE900A00F0004112
:1058000010EE100A00F00040814204BFBDEC028B94
:1058100010BD18EE101A10EE100ABDEC028B61F3E9
:105820001E0000EE900A30EE600A10BD18EE900ADD
:105830004FF07F41B1EB400F1CBF18EE100A5FEA3A
:105840004000C7D1012000F09DF9BDEC028BBDE8FE
:10585000104000F0CDB8000000B510EE101A2DED8C
:10586000028B81B0524A6846B2EB410F2ED94FF0FD
:10587000E640B0EB410F94BF00204FF0FF300090A6
:105880000098B0EE408A00286ADB10F0010F4BD080
:1058900068EE080A9FED471A9FED470A00EE810A5D
:1058A0009FED461A10F0020F00EE801AB7EE000AC4
:1058B00000EE810A02BF01B0BDEC028B00BD00BF4B
:1058C00001B0B1EE400ABDEC028B00BD3C4B21F0B3
:1058D0000042934241D911F0004FDFED3A0A20EE29
:1058E000201ADFED390A19BF31EE601A71EE200A75
:1058F00031EE201A71EE600ABDEEE01A11EE100AC8
:105900009FED321A00F0030000EEC10A9FED301A3D
:10591000009000EEC10A9FED2F1A00EEC10A9FED24
:105920002E1A00EEC10AABE728EE080A9FED2B1AEB
:10593000DFED2B0A10F0020F40EE410A9FED291A0D
:1059400000EE201A61EE000AB0EE480A08EE200AC6
:10595000B6D101B0BDEC028B00BD00F059F88FE765
:1059600018EE100A4000B0F17F4F0DD218EE100A69
:10597000FFF7F6FE042808BF00F042F8B0EE480A30
:1059800001B0BDEC028B00BD09D1012000F0FAF896
:1059900001B0BDEC028B5DF804EB00F029B801B05A
:1059A000B0EE480ABDEC028B5DF804EB00F01CB8C9
:1059B000B61F927EB93AB2BACA9F2A3DDDFFFFBE3A
:1059C000490E494683F9223F0000004B0000C93FC1
:1059D00000A0FD390020A2331A61342C336D4C39FC
:1059E000DA82083CA0AA2ABE30EE000A7047000006
:1059F000DFED020A80EEA00A704700000000000000
:105A00009FED020A20EE000A70470000000000101F
:105A10002DE9F0014FF07F42B2EB410F9FBF4FF0F5
:105A2000FF310160BDE8F00170474FF0004242EAEB
:105A30000123C1F3C752783A551112F01F0C434CA1
:105A4000CCF120067C44C1F3C752A2F178024FEAA0
:105A5000621204EB820254F8254008BFD2E90156D5
:105A600012D0556804FA0CF425FA06F73C439768FF
:105A700005FA0CF527FA06F8D26807FA0CFCF24092
:105A800045EA08054CEA0206A4FB034CA5FB0352B9
:105A9000A6FB03631D449D4234BF01260026131953
:105AA000334416B1934202D903E0934201D201225A
:105AB00000E00022624402F1200C9206DC0C42EA73
:105AC000443200EE102A5B03DFED210AF8EEC01A23
:105AD00000EE103A4FEA9C1C11F0004FB8EE400A5D
